{
  "_format": "hh-sol-artifact-1",
  "contractName": "HelloWorld",
  "sourceName": "contracts/HelloWorld.sol",
  "abi": [
    {
      "inputs": [],
      "stateMutability": "nonpayable",
      "type": "constructor"
    },
    {
      "inputs": [],
      "name": "getGreeting",
      "outputs": [
        {
          "internalType": "string",
          "name": "",
          "type": "string"
        }
      ],
      "stateMutability": "view",
      "type": "function"
    },
    {
      "inputs": [],
      "name": "greet",
      "outputs": [
        {
          "internalType": "string",
          "name": "",
          "type": "string"
        }
      ],
      "stateMutability": "view",
      "type": "function"
    },
    {
      "inputs": [
        {
          "internalType": "string",
          "name": "_name",
          "type": "string"
        }
      ],
      "name": "setGreeting",
      "outputs": [
        {
          "internalType": "bool",
          "name": "success",
          "type": "bool"
        }
      ],
      "stateMutability": "nonpayable",
      "type": "function"
    }
  ],
  "bytecode": "0x60c0604052600560809081526415dbdc9b1960da1b60a0526000906100249082610102565b5034801561003157600080fd5b5060408051808201909152600581526415dbdc9b1960da1b602082015260009061005b9082610102565b506101c1565b634e487b7160e01b600052604160045260246000fd5b600181811c9082168061008b57607f821691505b6020821081036100ab57634e487b7160e01b600052602260045260246000fd5b50919050565b601f8211156100fd576000816000526020600020601f850160051c810160208610156100da5750805b601f850160051c820191505b818110156100f9578281556001016100e6565b5050505b505050565b81516001600160401b0381111561011b5761011b610061565b61012f816101298454610077565b846100b1565b602080601f831160018114610164576000841561014c5750858301515b600019600386901b1c1916600185901b1785556100f9565b600085815260208120601f198616915b8281101561019357888601518255948401946001909101908401610174565b50858210156101b15787850151600019600388901b60f8161c191681555b5050505050600190811b01905550565b610675806101d06000396000f3fe608060405234801561001057600080fd5b50600436106100415760003560e01c8063a413686214610046578063cfae32171461006e578063fe50cc7214610083575b600080fd5b61005961005436600461039c565b61008b565b60405190151581526020015b60405180910390f35b6100766100f6565b604051610065919061044d565b610076610184565b6000808251116100e15760405162461bcd60e51b815260206004820152601860248201527f4772656574696e672063616e6e6f7420626520656d7074790000000000000000604482015260640160405180910390fd5b60006100ed8382610527565b50600192915050565b600080546101039061049c565b80601f016020809104026020016040519081016040528092919081815260200182805461012f9061049c565b801561017c5780601f106101515761010080835404028352916020019161017c565b820191906000526020600020905b81548152906001019060200180831161015f57829003601f168201915b505050505081565b60606102396040518060400160405280600781526020016602432b6363796160cd1b815250600080546101b69061049c565b80601f01602080910402602001604051908101604052809291908181526020018280546101e29061049c565b801561022f5780601f106102045761010080835404028352916020019161022f565b820191906000526020600020905b81548152906001019060200180831161021257829003601f168201915b505050505061023e565b905090565b805182516060918491849160009161025691906105fd565b67ffffffffffffffff81111561026e5761026e610386565b6040519080825280601f01601f191660200182016040528015610298576020820181803683370190505b509050806000805b8551821015610309578582815181106102bb576102bb610610565b01602001516001600160f81b03191683826102d581610626565b9350815181106102e7576102e7610610565b60200101906001600160f81b031916908160001a9053506001909101906102a0565b600091505b84518210156103775784828151811061032957610329610610565b01602001516001600160f81b031916838261034381610626565b93508151811061035557610355610610565b60200101906001600160f81b031916908160001a90535060019091019061030e565b50909450505050505b92915050565b634e487b7160e01b600052604160045260246000fd5b6000602082840312156103ae57600080fd5b813567ffffffffffffffff808211156103c657600080fd5b818401915084601f8301126103da57600080fd5b8135818111156103ec576103ec610386565b604051601f8201601f19908116603f0116810190838211818310171561041457610414610386565b8160405282815287602084870101111561042d57600080fd5b826020860160208301376000928101602001929092525095945050505050565b60006020808352835180602085015260005b8181101561047b5785810183015185820160400152820161045f565b506000604082860101526040601f19601f8301168501019250505092915050565b600181811c908216806104b057607f821691505b6020821081036104d057634e487b7160e01b600052602260045260246000fd5b50919050565b601f821115610522576000816000526020600020601f850160051c810160208610156104ff5750805b601f850160051c820191505b8181101561051e5782815560010161050b565b5050505b505050565b815167ffffffffffffffff81111561054157610541610386565b6105558161054f845461049c565b846104d6565b602080601f83116001811461058a57600084156105725750858301515b600019600386901b1c1916600185901b17855561051e565b600085815260208120601f198616915b828110156105b95788860151825594840194600190910190840161059a565b50858210156105d75787850151600019600388901b60f8161c191681555b5050505050600190811b01905550565b634e487b7160e01b600052601160045260246000fd5b80820180821115610380576103806105e7565b634e487b7160e01b600052603260045260246000fd5b600060018201610638576106386105e7565b506001019056fea264697066735822122052d3b90497491c5b7a92945fc4edafab4ab0310ab2b7b5844826b34f13d5b87564736f6c63430008180033",
  "linkReferences": {},
  "deployedLinkReferences": {}
}